{
  "contractName": "VendingMachine",
  "abi": [
    {
      "inputs": [],
      "stateMutability": "nonpayable",
      "type": "constructor"
    },
    {
      "inputs": [
        {
          "internalType": "address",
          "name": "",
          "type": "address"
        }
      ],
      "name": "donutBalances",
      "outputs": [
        {
          "internalType": "uint256",
          "name": "",
          "type": "uint256"
        }
      ],
      "stateMutability": "view",
      "type": "function",
      "constant": true
    },
    {
      "inputs": [],
      "name": "owner",
      "outputs": [
        {
          "internalType": "address",
          "name": "",
          "type": "address"
        }
      ],
      "stateMutability": "view",
      "type": "function",
      "constant": true
    },
    {
      "inputs": [],
      "name": "price",
      "outputs": [
        {
          "internalType": "uint256",
          "name": "",
          "type": "uint256"
        }
      ],
      "stateMutability": "view",
      "type": "function",
      "constant": true
    },
    {
      "inputs": [],
      "name": "getVendingMachineBalance",
      "outputs": [
        {
          "internalType": "uint256",
          "name": "",
          "type": "uint256"
        }
      ],
      "stateMutability": "view",
      "type": "function",
      "constant": true
    },
    {
      "inputs": [
        {
          "internalType": "uint256",
          "name": "amount",
          "type": "uint256"
        }
      ],
      "name": "restock",
      "outputs": [],
      "stateMutability": "nonpayable",
      "type": "function"
    },
    {
      "inputs": [
        {
          "internalType": "uint256",
          "name": "amount",
          "type": "uint256"
        }
      ],
      "name": "purchase",
      "outputs": [],
      "stateMutability": "payable",
      "type": "function",
      "payable": true
    }
  ],
  "bytecode": "0x6080604052671bc16d674ec8000060015534801561001c57600080fd5b50336000806101000a81548173ffffffffffffffffffffffffffffffffffffffff021916908373ffffffffffffffffffffffffffffffffffffffff1602179055506064600260003073ffffffffffffffffffffffffffffffffffffffff1673ffffffffffffffffffffffffffffffffffffffff1681526020019081526020016000208190555061081e806100b16000396000f3fe6080604052600436106100555760003560e01c80638da5cb5b1461005a5780639a020d8a14610085578063a035b1fe146100c2578063c21a702a146100ed578063e7644d3414610116578063efef39a114610141575b600080fd5b34801561006657600080fd5b5061006f61015d565b60405161007c919061048e565b60405180910390f35b34801561009157600080fd5b506100ac60048036038101906100a791906104da565b610181565b6040516100b99190610520565b60405180910390f35b3480156100ce57600080fd5b506100d7610199565b6040516100e49190610520565b60405180910390f35b3480156100f957600080fd5b50610114600480360381019061010f9190610567565b61019f565b005b34801561012257600080fd5b5061012b610286565b6040516101389190610520565b60405180910390f35b61015b60048036038101906101569190610567565b6102cd565b005b60008054906101000a900473ffffffffffffffffffffffffffffffffffffffff1681565b60026020528060005260406000206000915090505481565b60015481565b60008054906101000a900473ffffffffffffffffffffffffffffffffffffffff1673ffffffffffffffffffffffffffffffffffffffff163373ffffffffffffffffffffffffffffffffffffffff161461022d576040517f08c379a0000000000000000000000000000000000000000000000000000000008152600401610224906105f1565b60405180910390fd5b80600260003073ffffffffffffffffffffffffffffffffffffffff1673ffffffffffffffffffffffffffffffffffffffff168152602001908152602001600020600082825461027c9190610640565b9250508190555050565b6000600260003073ffffffffffffffffffffffffffffffffffffffff1673ffffffffffffffffffffffffffffffffffffffff16815260200190815260200160002054905090565b806001546102db9190610674565b341461031c576040517f08c379a000000000000000000000000000000000000000000000000000000000815260040161031390610702565b60405180910390fd5b80600260003073ffffffffffffffffffffffffffffffffffffffff1673ffffffffffffffffffffffffffffffffffffffff16815260200190815260200160002054101561039e576040517f08c379a000000000000000000000000000000000000000000000000000000000815260040161039590610794565b60405180910390fd5b80600260003073ffffffffffffffffffffffffffffffffffffffff1673ffffffffffffffffffffffffffffffffffffffff16815260200190815260200160002060008282546103ed91906107b4565b9250508190555080600260003373ffffffffffffffffffffffffffffffffffffffff1673ffffffffffffffffffffffffffffffffffffffff16815260200190815260200160002060008282546104439190610640565b9250508190555050565b600073ffffffffffffffffffffffffffffffffffffffff82169050919050565b60006104788261044d565b9050919050565b6104888161046d565b82525050565b60006020820190506104a3600083018461047f565b92915050565b600080fd5b6104b78161046d565b81146104c257600080fd5b50565b6000813590506104d4816104ae565b92915050565b6000602082840312156104f0576104ef6104a9565b5b60006104fe848285016104c5565b91505092915050565b6000819050919050565b61051a81610507565b82525050565b60006020820190506105356000830184610511565b92915050565b61054481610507565b811461054f57600080fd5b50565b6000813590506105618161053b565b92915050565b60006020828403121561057d5761057c6104a9565b5b600061058b84828501610552565b91505092915050565b600082825260208201905092915050565b7f4f6e6c7920746865206f776e65722063616e20726573746f636b2e0000000000600082015250565b60006105db601b83610594565b91506105e6826105a5565b602082019050919050565b6000602082019050818103600083015261060a816105ce565b9050919050565b7f4e487b7100000000000000000000000000000000000000000000000000000000600052601160045260246000fd5b600061064b82610507565b915061065683610507565b925082820190508082111561066e5761066d610611565b5b92915050565b600061067f82610507565b915061068a83610507565b925082820261069881610507565b915082820484148315176106af576106ae610611565b5b5092915050565b7f696e636f7265637420616d6f756e742073656e74000000000000000000000000600082015250565b60006106ec601483610594565b91506106f7826106b6565b602082019050919050565b6000602082019050818103600083015261071b816106df565b9050919050565b7f4e6f7420656e6f75676820646f6e75747320696e2073746f636b20746f20636f60008201527f6d706c6574652074686973207075726368617365000000000000000000000000602082015250565b600061077e603483610594565b915061078982610722565b604082019050919050565b600060208201905081810360008301526107ad81610771565b9050919050565b60006107bf82610507565b91506107ca83610507565b92508282039050818111156107e2576107e1610611565b5b9291505056fea264697066735822122093cd4084d92fa55c871c2fe27574925a2958208f99272e0a7a57bb15fdc6233d64736f6c63430008110033",
  "immutableReferences": {},
  "source": "// SPDX-License-Identifier: MIT\npragma solidity ^0.8.17;\n\ncontract VendingMachine {\n\n    // state variables\n    address public owner;\n    uint public price = 2 ether;\n    mapping (address => uint) public donutBalances;\n\n    // set the owner as th address that deployed the contract\n    // set the initial vending machine balance to 100\n    constructor() {\n        owner = msg.sender;\n        donutBalances[address(this)] = 100;\n    }\n\n    function getVendingMachineBalance() public view returns (uint) {\n        return donutBalances[address(this)];\n    }\n\n    // Let the owner restock the vending machine\n    function restock(uint amount) public {\n        require(msg.sender == owner, \"Only the owner can restock.\");\n        donutBalances[address(this)] += amount;\n    }\n\n    // Purchase donuts from the vending machine\n    function purchase(uint amount) public payable {\n        require(msg.value == price * amount,\"incorect amount sent\");\n        require(donutBalances[address(this)] >= amount, \"Not enough donuts in stock to complete this purchase\");\n        donutBalances[address(this)] -= amount;\n        donutBalances[msg.sender] += amount;\n    }\n}",
  "sourcePath": "/media/dell/New Volume/Project/truffle_Project/vandingmachine/contracts/VendingMachine.sol",
  "compiler": {
    "name": "solc",
    "version": "0.8.17+commit.8df45f5f.Emscripten.clang"
  },
  "schemaVersion": "3.4.11",
  "updatedAt": "2023-01-31T08:43:39.566Z",
  "networkType": "ethereum",
  "devdoc": {
    "kind": "dev",
    "methods": {},
    "version": 1
  },
  "userdoc": {
    "kind": "user",
    "methods": {},
    "version": 1
  }
}